:10119700566F6C746167653A200025312E346656A8
:1011A70000000000003CA0902E3D20902E3D70D8FE
:1011B700453DA0902E3DC8B4393DF0D8453E0C982A
:1011C7005F3E20AA653E34BC6A3E48CE703E5CE076
:1011D700763E70F27C3E8282413E8C8B443E9694F2
:1011E700463EA09D493EAAA64C3EB4AF4F3EBEB870
:1011F700523EC8CE703ED2D7733EDCE0763EE6E97B
:10120700793EF0F27C3EFAFB7F3F0282413F078640
:10121700C23F0C8B443F118FC53F1694463F1B9826
:10122700C83F20A3D73F25A8583F2AACDA3F2FB1A4
:101237005B3F34B5DD3F39BA5E3F3EBEE03F43C357
:10124700613F48C7E33F4DCC643F52D0E53F57D598
:10125700673F5CD9E83F61E4F73F66E9793F6BEDAB
:10126700FA3F70F27C3F75F6FD3F7AFB7F3F8000C7
:10127700003F8282413F8504813F8786C23F8A09BA
:10128700033F8C8B443F8F0D843F91930C3F941504
:101297004D3F96978D3F9919CE3F9B9C0F3F9E1EC2
:1012A7004F3FA0A0903FA322D13FA5A5123FA8275B
:1012B700523FAAA9933FAD2BD43FAFAE143FB233F1
:1012C7009C3FB4B5DD3FB7381D3FB9BA5E3FBC3C64
:1012D7009F3FBEBEE03FC141203FC3C3613FC645FC
:1012E700A23FC8C7E33FCB4A233FCDCC643FD05191
:1012F700EC3FD2D42C3FD5566D3FD7D8AE3FDA5A04
:10130700EE3FDCDD2F3FDF5F703FE1E1B13FE4639C
:10131700F13FE6E6323FE968733FEBEAB33FEE6C35
:10132700F43FF0F27C3FF374BC3FF5F6FD3FF879EC
:101337003E3FFAFB7F3FFD7DBF400000004001417B
:1013470020400282414003C36140050481400645B5
:10135700A2400786C24008C986400A0AA6400B4B2E
:10136700C7400C8CE7400DCE07400F0F28401050A8
:1013770048401191684012D289401413A94015546E
:10138700CA401695EA4017D70A401919CE401A5A8B
:10139700EE401B9C0F401CDD2F401E1E4F401F5F61
:1013A700704020A0904021E1B1402322D140246326
:1013B700F14025A5124026E632402828F640296A42
:1013C70016402AAB36402BEC57402D2D77402E6E1A
:1013D70098402FAFB84030F0D8403231F9403373DE
:1013E700194034B4394035F55A4037367A403879A0
:1013F7003E4039BA5E403AFB7F403C3C9F403D7DD2
:10140700BF403EBEE0404000004041412040428294
:10141700414043C36140450481404645A240478659
:10142700C24048C986404A0AA6404B4BC7404C8C2D
:10143700E7404DCE07404F0F28405050484051914C
:10144700684052D289405413A9405554CA40569512
:10145700EA4057D70A405919CE405A5AEE405B9C8A
:101467000F405CDD2F405E1E4F405F5F704060A005
:10147700904061E1B1406322D1406463F14065A5CA
:10148700124066E632406828F640696A16406AAB41
:1014970036406BEC57406D2D77406E6E98406FAFBE
:1014A700B84070F0D8407231F9407373194074B482
:1014B700394075F55A4077367A4078793E4079BA9F
:1014C7005E407AFB7F407C3C9F407D7DBF407EBE77
:1014D700E0408000004080A090408141204081E1B1
:1014E700B140828241408322D14083C361408464FA
:1014F700C3408505534085A5E3408646744086E78B
:101507000440878794408828244088C8B440896964
:1015170044408A09D5408AAA65408B4AF5408BEB3F
:1015270085408C8CE7408D2D77408DCE07408E6EA1
:1015370098408F0F28408FAFB8409050484090F0A8
:10154700D840919168409231F94092D28940937383
:10155700194094147B4094B50B4095559B4095F6E4
:101567002B409696BC4097374C4097D7DC409878ED
:101577006C409918FC4099B98C409A5A1D409AFAC8
:10158700AD409B9B3D409C3C9F409CDD2F409D7DFB
:10159700BF409E1E4F409EBEE0409F5F7040A00030
:0115A7000043
:1015A8001215EC7BFF7A1179971216671216AF8F16
:1015B8002275F004EFA424A8F582E5F03411F58330
:1015C800120CE28F268E258D248C237FC01216C420
:1015D800AF26AE25AD24AC2312168C7F057E0012F3
:0415E800162080C881
:1015EC007F381216C412161C7F0C1216C412161C4D
:1015FC007F061216C412161C7F011216C412161C7A
:0C160C007F801216C47F017E00021620B1
:1016C4008FA0C2B0121618C2B27F017E000216208B
:1016D4008FA0D2B0121618C2B27F017E000216206B
:101667008B378A388939AB37AA38A939120C8A607F
:10167700130539E5397002053814F9120C8AFF127F
:0516870016D480E222F0
:10168C00753AFF753B11753CA18F408E3F8D3E8C9A
:10169C003D7B007A007927120D847B007A00792734
:0316AC00021667BC
:1016AF00D2B3D2B512161CC2B3C2B520B6FDD2B496
:0416BF00AF90C2B472
:0116C3002204
:08161800C2B1D2B27F017E00D5
:10162000E4FDFCC3ED9FEC9E5015E4FBFA0BBB0000
:0F163000010ABA04F8BBFBF50DBD00010C80E404
:01163F002288
:100D2800E54E243AF8E6054E227837300702783A3D
:100D3800E475F001120CF2020C8A2000EB7F2ED22F
:100D4800008018EF540F2490D43440D4FF30040BA3
:100D5800EF24BFB41A0050032461FFE54F60021569
:100D68004F0552E5527002055130070D7837E4758A
:100D7800F001120CF2EF020CD00216407403D207F5
:100D88008003E4C207F54E8B378A388939E4F54F7A
:100D9800F551F552E54F60077F20120D6380F57518
:100DA80050FFC201C200C202C203C205C206C20885
:100DB800120D31FF700D3007057F00120D74AF5210
:100DC800AE5122B4255FC2D5C204120D31FF24D022
:100DD800B40A00501A75F00A784F30D50508B6FFE6
:100DE8000106C6A426F620D5047002D20380D924B1
:100DF800CFB41A00EF5004C2E5D204021061D20148
:100E080080C6D20080C0D20280BCD2D580BAD205BA
:100E180080B47F20120D632002077401B54F004093
:100E2800F1120D28FF120D63020D9CD208D2068024
:100E380095120D28FB120D28FA120D28F94A4B704D
:100E48000679587A117BFF20022EE54F602A7E0032
:100E58008E82758300120CA360060EEE655070F04A
:100E6800C2D5EBC0E0EAC0E0E9C0E0EE1210C1D0A4
:100E7800E0F9D0E0FAD0E0FB120C8AFF60AAEBC0E0
:100E8800E0EAC0E0E9C0E0120D63D0E02401F9D047
:100E9800E03400FAD0E0FBE5500460DCD550D9809E
:100EA80087D20280A21210A460F7E55070010412E4
:100EB8000800A950600DE550600914F55012114B57
:100EC800EF60F3EA30E702F404C3995077EAF425B7
:100ED800500430E701E404F550800D1210A460C1FD
:100EE800EA05502550120800EA784DF630E701E48B
:100EF800255004D55004200501141210C1E4C0E0A7
:100F080012114B784DE6601320E70714F6120D4BCB
:100F1800802204F6D0E014C0E07F00120D4BE550AB
:100F28006007120D421550800B300503120D42D098
:100F3800E0020D9CD0E00480C51210A460A0E5502A
:100F480004120800784DEAF6E55020050260010415
:050F580024041210C189
:100F5D0074FF04C0E012114B120D4BE55020050239
:100F6D006003120D42D0E0B550E87F45120D557863
:100F7D004DE67F2B30E7047F2DF404C0E0120D63A6
:100F8D00D0E075F00A84C0F0120D4CD0E0120D4C7B
:100F9D00020D9C791080027908C206C2088008D221
:100FAD00D5790A8004790AC2D5E550047002F5504E
:100FBD00E4FAFDFEFF120D28FC7B08200113120D33
:100FCD0028FD7B1030000A120D28FE120D28FF7B24
:100FDD0020EC3382D592D55013C3E43000069FFF29
:100FED00E49EFEE42001039DFDE49CFCE4CBF8C2ED
:100FFD0001EC700CCFCECDCCE824F8F870F380174F
:10100D00C3EF33FFEE33FEED33FDEC33FCEB33FB7F
:10101D00994002FB0FD8E9EB300105F8D0E0C44848
:10102D00B201C0E00AEC4D4E4F78207B0070C2EA51
:10103D00B5500040BCC0E01210C3D0F0D0E020018C
:10104D0004C4C0E0C4B201C0F0120D4CD0F0D5F014
:10105D00EB020D9C120D020E39530FA0580E0A4CC7
:10106D000E06420FA44F0FAC440FAC490E1F430F99
:10107D00B2550EE3460F41450EAD471178500E0E99
:10108D002D0E122E0E352B0E16230E332011612A26
:10109D000DCE4800000E2DE550B4FF03755006121D
:1010AD000D28FC120D28FD120D28FE120D28FF78BB
:1010BD004602082F790AA2D5200314300509B9106C
:1010CD00020404B9080104A2D5200602500104202F
:1010DD0002689202B54F005034C0E07F20300319F2
:1010ED007F30A20272067205500F12111AC202C28F
:1010FD0006C205C2087F30800F300503E9C0E0123B
:10110D000D63300503D0E0F9D0E0B54FCC300517B5
:10111D007F30B9100C120D637F583004077F788033
:10112D0003B90803120D633002057F2D020D637F95
:10113D00202008F87F2B2006F322920280CF7F001B
:10114D00B4070050052446F8E6FF22286E756C6C36
:10115D002900D201120D283001F8C201784F30D587
:10116D000108F6020DCE2D50434958120D282403C7
:10117D00B405004001E490117393120D54743A12AA
:0A118D000D54D203754F04020FA0A9
:10080000F920E72824F950037907E4F42402FB18BF
:10081000DBFDE624FB5014E9600DE4F618E604F66F
:0F082000B40A08E4F6D9F57401F60A22C2D5220B
:10082F00ED33EC3392D5FA602AB4FF33EDC2E77B98
:10083F00FF60067A087954E4227A08795D20D5049E
:10084F007A087958224E614E002B494E46002D49A9
:10085F004E4600E47A08F608DAFC7B00740722E8BB
:10086F00C0E0ECC0E0EDC0E0EEC0E0EFC0E0EA7544
:10087F00F010A4CAABF075F04DA42BFBE435F0FCDF
:10088F00EA2410FAEB34C5FBEC34D9FCEDC2E7FFD8
:10089F0075F056A4F42411C5F0F434C58FF0A42AD2
:1008AF00E5F03BE43CF620E714120C00D0E0FFD05B
:1008BF00E0FED0E0FDD0E0FC120B338014F4041204
:1008CF000C00D0E0FFD0E0FED0E0FDD0E0FC120A3B
:1008DF002AD0E0F8E6FAEDD2E7CD33EC332482FBF1
:1008EF00E4C3CF33CFCE33CECD33CD33DBF37B0762
:1008FF0075F00A846004F6081B0AE5F0F6088FF01D
:10090F00740AA4FFACF08EF0740AA42CFEACF05065
:10091F00010C8DF0740AA42CFDE435F0F608DBDE33
:03092F0074072228
:10093200020C75E86480F8E933E83360110460F072
:10094200ED33EC337009E8FCE9FDEAFEEBFF22042B
:1009520060DED3EB9FEA9EE99DE8C2E78CF0C2F726
:1009620095F0400CE8CCF8E9CDF9EACEFAEBCFFBF2
:10097200120C4085D0F05804700320D5B3E80470FF
:10098200075002B2D5020C7F92D5EC0460F7E4CC9A
:10099200C0E0C398F8603B94186008400DD0E0FBBB
:1009A200020C57E4FBFAC9FC8028E830E406E4C9EB
:1009B200FBE4CAFCE830E305E4C9CACBFCE854070F
:1009C2006010F8C3E913F9EA13FAEB13FBEC13FC1A
:1009D200D8F130F52FC3E49CFCEF9BFFEE9AFEEDBD
:1009E20099FDD0E0FBEF4E4D4C701222DB03020C5E
:1009F2007CEC2CFCEF33FFEE33FEED33FDED30E704
:100A0200EB020C57EF2BFFEE3AFEED39FDD0E0FB87
:100A120050130BBB0003020C7FED13FDEE13FEEF30
:080A220013FFEC13FC020C575A
:100A2A00EC4D6011E8497017ED33EC3304600DE4C6
:100A3A00FCFFFEFD22E933E8330470F8020C75125C
:100A4A000C4058046009E4CC24815006285009025D
:100A5A000C7F284003020C7CC0E0EB4A7044B9804A
:100A6A0006D0E0FB020C6BEF4E701CBD8008EBFF5A
:100A7A00EAFEE9FD80EBE98DF0A4FEE5F0020B1336
:100A8A00E9CDF9EAFEEBFFEF89F0A4FCE5F0CE89A7
:100A9A00F0A42EFFE435F0CD89F0A42DFEE435F064
:100AAA008067EF4E7005BD80D780C3EF8BF0A4AC92
:100ABA00F0EE8BF0A42CFCE435F0F8EF8AF0A42CCD
:100ACA00E5F038FCE433CB8DF0A42CFCE5F03BF8E0
:100ADA00EE8AF0A42CFCE5F038F8E433CF89F0A4D0
:100AEA002CFCE5F038CF3400CE89F0A42FFFE5F0D6
:100AFA003EFEE433C98DF0A42EFEE5F039CD8AF02E
:100B0A00A42FFFE5F03EFEE43DFD33D0E0FB5007A5
:100B1A000BBB000F020C7FEC2CFCEF33FFEE33FE15
:060B2A00ED33FD020C5743
:100B3000020C7FEC5D046005E859047003020C753B
:100B4000120C40580460F6EC4860F2EC7004FDFEB4
:100B5000FF22C860DB2481C85009C3986002500698
:100B6000020C7C9850CAF582E9294B4A7005AB8289
:100B7000020C6B75F0007C1A7880C3EF9BEE9AED47
:100B800099400DC3EF9BFFEE9AFEED99FDE842F010
:100B9000DC23ACF0D0E0FFD0E0FED0E0FDAB822063
:100BA000E7101BEB60BAEC2CFCEF33FFEE33FEEDED
:100BB00033FD020C57E803F830E705C0F075F0008C
:100BC000EF2FFFEE33FEED33FD40B830E7C280AAD1
:100BD0003F8000004120000042C80000447A00002D
:100BE000461C400047C35000497424004B189680AF
:100BF0004CBEBC205A0E1BCA6753C21C749DC5AEA6
:100C0000FB60065407601C2323120C2EEB54386043
:100C100009120C1A120C29120A2AECF8EDF9EEFA54
:100C2000EFCB22EB120C2980F1543803241C900BDB
:100C3000D0FE93FC0EEE93FD0EEE930ECE93FF22AC
:100C4000E9D2E7C933E833F892D5EDD2E7CD33ECFA
:070C500033FC5002B2D52273
:100C5700EC30E7100FBF000C0EBE00080DBD0004FE
:100C67000BEB6014A2D5EB13FCED92E7FD2274FFAA
:100C7700FCFDFEFF22E480F8A2D574FF13FC7D8003
:030C8700E480EF17
:030000000216E401
:0C16E400787FE4F6D8FD7581520215A84D
:100C8A00BB010689828A83E0225002E722BBFE0268
:090C9A00E32289828A83E493229B
:100CA300BB010CE58229F582E5833AF583E0225006
:100CB30006E92582F8E622BBFE06E92582F8E22250
:0D0CC300E58229F582E5833AF583E493226A
:100CD000BB010689828A83F0225002F722BBFE0103
:020CE000F322FD
:100CE200E493FC740193FD740293FE740393FF2258
:100CF200FAE6FB0808E6F925F0F618E6CA3AF62203
:100D0200D083D082F8E4937012740193700DA3A380
:100D120093F8740193F5828883E473740293686094
:060D2200EFA3A3A380DF94
:10164000EFB40A07740D12164B740A309811A8995A
:10165000B8130CC2983098FDA899C298B811F6300A
:0716600099FDC299F59922E2
:00000001FF
