:030000000216DE07
:0C16DE00787FE4F6D8FD7581520215A952
:1011970043757272656E743A200025312E316620D0
:1011A70041000000000000000000000000000000F7
:1011B7000000000000000000000000000000000028
:1011C7000000000000000000000000000000000018
:1011D7000000000000000000000000000000000008
:1011E70000000000000000000000000000000000F8
:1011F70000000000000000000000000000000000E8
:1012070000000000000000000000000000000000D7
:1012170000000000000000000000000000000000C7
:1012270000000000000000000000000000000000B7
:1012370000000000000000000000000000000000A7
:101247000000000000000000000000000000000097
:101257000000000000000000000000000000000087
:101267000000000000000000000000000000000077
:101277000000000000000000000000000000000067
:101287000000000000000000000000000000000057
:101297000000000000000000000000000000000047
:1012A7000000000000000000000000000000000037
:1012B7000000000000000000000000000000000027
:1012C7000000000000000000000000000000000017
:1012D7000000000000000000000000000000000007
:1012E70000000000000000000000000000000000F7
:1012F70000000000000000000000000000000000E7
:1013070000000000000000000000000000000000D6
:1013170000000000000000000000000000000000C6
:1013270000000000000000000000000000000000B6
:1013370000000000000000000000000000000000A6
:101347000000000000000000000000000000000096
:101357000000000000000000000000000000000086
:101367000000000000000000000000000000000076
:101377000000000000000000000000000000000066
:101387000000000000000000000000000000000056
:101397000000000000000000000000000000000046
:1013A70000003E99999A3F19999A3F6666663F9958
:1013B700999A3FC000003FE6666640066666401998
:1013C700999A402CCCCD40400000405333334066BF
:1013D70066664079999A4086666640900000409913
:1013E700999A40A3333340ACCCCD40B6666640C033
:1013F700000040C9999A40D3333340DCCCCD40E656
:10140700666640F0000040F9999A4101999A4106B1
:101417006666410B3333411000004114CCCD4119AE
:10142700999A411E66664123333341280000412CB7
:10143700CCCD4131999A41366666413B33334140C1
:1014470000004144CCCD4149999A414E66664153CB
:10145700333341580000415CCCCD4161999A4166D4
:101467006666416B3333417000004174CCCD4179DE
:10147700999A417E66664181999A41840000418626
:1014870066664188CCCD418B3333418D999A419023
:101497000000419266664194CCCD41973333419920
:1014A700999A419C0000419E666641A0CCCD41A31C
:1014B700333341A5999A41A8000041AA666641AC19
:1014C700CCCD41AF333341B1999A41B4000041B615
:1014D700666641B8CCCD41BB333341BD999A41C013
:1014E700000041C2666641C4CCCD41C7333341C910
:1014F700999A41CC000041CE666641D0CCCD41D30C
:10150700333341D5999A41D8000041DA666641DC08
:10151700CCCD41DF333341E1999A41E4000041E604
:10152700666641E8CCCD41EB333341ED999A41F002
:1015370000000000000000000000000000000000A4
:101547000000000000000000000000000000000094
:101557000000000000000000000000000000000084
:101567000000000000000000000000000000000074
:101577000000000000000000000000000000000064
:101587000000000000000000000000000000000054
:101597000000000000000000000000000000000044
:0215A700000042
:1015A9001215E67BFF7A1179971216611216A98F27
:1015B9002275F004EFA424A9F582E5F03411F5832E
:1015C900120CE28F268E258D248C237FC01216BE25
:0D15D900AF26AE25AD24AC2312168680CFC0
:1015E6007F381216BE1216167F0C1216BE1216166B
:1015F6007F061216BE1216167F011216BE12161698
:0C1606007F801216BE7F017E0002161AC3
:1016BE008FA0C2B0121612C2B27F017E0002161A9D
:1016CE008FA0D2B0121612C2B27F017E0002161A7D
:101661008B378A388939AB37AA38A939120C8A6085
:10167100130539E5397002053814F9120C8AFF1285
:0516810016CE80E222FC
:10168600753AFF753B11753CA18F408E3F8D3E8CA0
:101696003D7B007A007927120D847B007A0079273A
:0316A600021661C8
:1016A900D2B3D2B5121616C2B3C2B520B6FDD2B4A2
:0416B900AF90C2B478
:0116BD00220A
:08161200C2B1D2B27F017E00DB
:10161A00E4FDFCC3ED9FEC9E5015E4FBFA0BBB0006
:0F162A00010ABA04F8BBFBF50DBD00010C80E40A
:01163900228E
:100D2800E54E243AF8E6054E227837300702783A3D
:100D3800E475F001120CF2020C8A2000EB7F2ED22F
:100D4800008018EF540F2490D43440D4FF30040BA3
:100D5800EF24BFB41A0050032461FFE54F60021569
:100D68004F0552E5527002055130070D7837E4758A
:100D7800F001120CF2EF020CD002163A7403D207FB
:100D88008003E4C207F54E8B378A388939E4F54F7A
:100D9800F551F552E54F60077F20120D6380F57518
:100DA80050FFC201C200C202C203C205C206C20885
:100DB800120D31FF700D3007057F00120D74AF5210
:100DC800AE5122B4255FC2D5C204120D31FF24D022
:100DD800B40A00501A75F00A784F30D50508B6FFE6
:100DE8000106C6A426F620D5047002D20380D924B1
:100DF800CFB41A00EF5004C2E5D204021061D20148
:100E080080C6D20080C0D20280BCD2D580BAD205BA
:100E180080B47F20120D632002077401B54F004093
:100E2800F1120D28FF120D63020D9CD208D2068024
:100E380095120D28FB120D28FA120D28F94A4B704D
:100E48000679587A117BFF20022EE54F602A7E0032
:100E58008E82758300120CA360060EEE655070F04A
:100E6800C2D5EBC0E0EAC0E0E9C0E0EE1210C1D0A4
:100E7800E0F9D0E0FAD0E0FB120C8AFF60AAEBC0E0
:100E8800E0EAC0E0E9C0E0120D63D0E02401F9D047
:100E9800E03400FAD0E0FBE5500460DCD550D9809E
:100EA80087D20280A21210A460F7E55070010412E4
:100EB8000800A950600DE550600914F55012114B57
:100EC800EF60F3EA30E702F404C3995077EAF425B7
:100ED800500430E701E404F550800D1210A460C1FD
:100EE800EA05502550120800EA784DF630E701E48B
:100EF800255004D55004200501141210C1E4C0E0A7
:100F080012114B784DE6601320E70714F6120D4BCB
:100F1800802204F6D0E014C0E07F00120D4BE550AB
:100F28006007120D421550800B300503120D42D098
:100F3800E0020D9CD0E00480C51210A460A0E5502A
:100F480004120800784DEAF6E55020050260010415
:050F580024041210C189
:100F5D0074FF04C0E012114B120D4BE55020050239
:100F6D006003120D42D0E0B550E87F45120D557863
:100F7D004DE67F2B30E7047F2DF404C0E0120D63A6
:100F8D00D0E075F00A84C0F0120D4CD0E0120D4C7B
:100F9D00020D9C791080027908C206C2088008D221
:100FAD00D5790A8004790AC2D5E550047002F5504E
:100FBD00E4FAFDFEFF120D28FC7B08200113120D33
:100FCD0028FD7B1030000A120D28FE120D28FF7B24
:100FDD0020EC3382D592D55013C3E43000069FFF29
:100FED00E49EFEE42001039DFDE49CFCE4CBF8C2ED
:100FFD0001EC700CCFCECDCCE824F8F870F380174F
:10100D00C3EF33FFEE33FEED33FDEC33FCEB33FB7F
:10101D00994002FB0FD8E9EB300105F8D0E0C44848
:10102D00B201C0E00AEC4D4E4F78207B0070C2EA51
:10103D00B5500040BCC0E01210C3D0F0D0E020018C
:10104D0004C4C0E0C4B201C0F0120D4CD0F0D5F014
:10105D00EB020D9C120D020E39530FA0580E0A4CC7
:10106D000E06420FA44F0FAC440FAC490E1F430F99
:10107D00B2550EE3460F41450EAD471178500E0E99
:10108D002D0E122E0E352B0E16230E332011612A26
:10109D000DCE4800000E2DE550B4FF03755006121D
:1010AD000D28FC120D28FD120D28FE120D28FF78BB
:1010BD004602082F790AA2D5200314300509B9106C
:1010CD00020404B9080104A2D5200602500104202F
:1010DD0002689202B54F005034C0E07F20300319F2
:1010ED007F30A20272067205500F12111AC202C28F
:1010FD0006C205C2087F30800F300503E9C0E0123B
:10110D000D63300503D0E0F9D0E0B54FCC300517B5
:10111D007F30B9100C120D637F583004077F788033
:10112D0003B90803120D633002057F2D020D637F95
:10113D00202008F87F2B2006F322920280CF7F001B
:10114D00B4070050052446F8E6FF22286E756C6C36
:10115D002900D201120D283001F8C201784F30D587
:10116D000108F6020DCE2D50434958120D282403C7
:10117D00B405004001E490117393120D54743A12AA
:0A118D000D54D203754F04020FA0A9
:10080000F920E72824F950037907E4F42402FB18BF
:10081000DBFDE624FB5014E9600DE4F618E604F66F
:0F082000B40A08E4F6D9F57401F60A22C2D5220B
:10082F00ED33EC3392D5FA602AB4FF33EDC2E77B98
:10083F00FF60067A087954E4227A08795D20D5049E
:10084F007A087958224E614E002B494E46002D49A9
:10085F004E4600E47A08F608DAFC7B00740722E8BB
:10086F00C0E0ECC0E0EDC0E0EEC0E0EFC0E0EA7544
:10087F00F010A4CAABF075F04DA42BFBE435F0FCDF
:10088F00EA2410FAEB34C5FBEC34D9FCEDC2E7FFD8
:10089F0075F056A4F42411C5F0F434C58FF0A42AD2
:1008AF00E5F03BE43CF620E714120C00D0E0FFD05B
:1008BF00E0FED0E0FDD0E0FC120B338014F4041204
:1008CF000C00D0E0FFD0E0FED0E0FDD0E0FC120A3B
:1008DF002AD0E0F8E6FAEDD2E7CD33EC332482FBF1
:1008EF00E4C3CF33CFCE33CECD33CD33DBF37B0762
:1008FF0075F00A846004F6081B0AE5F0F6088FF01D
:10090F00740AA4FFACF08EF0740AA42CFEACF05065
:10091F00010C8DF0740AA42CFDE435F0F608DBDE33
:03092F0074072228
:10093200020C75E86480F8E933E83360110460F072
:10094200ED33EC337009E8FCE9FDEAFEEBFF22042B
:1009520060DED3EB9FEA9EE99DE8C2E78CF0C2F726
:1009620095F0400CE8CCF8E9CDF9EACEFAEBCFFBF2
:10097200120C4085D0F05804700320D5B3E80470FF
:10098200075002B2D5020C7F92D5EC0460F7E4CC9A
:10099200C0E0C398F8603B94186008400DD0E0FBBB
:1009A200020C57E4FBFAC9FC8028E830E406E4C9EB
:1009B200FBE4CAFCE830E305E4C9CACBFCE854070F
:1009C2006010F8C3E913F9EA13FAEB13FBEC13FC1A
:1009D200D8F130F52FC3E49CFCEF9BFFEE9AFEEDBD
:1009E20099FDD0E0FBEF4E4D4C701222DB03020C5E
:1009F2007CEC2CFCEF33FFEE33FEED33FDED30E704
:100A0200EB020C57EF2BFFEE3AFEED39FDD0E0FB87
:100A120050130BBB0003020C7FED13FDEE13FEEF30
:080A220013FFEC13FC020C575A
:100A2A00EC4D6011E8497017ED33EC3304600DE4C6
:100A3A00FCFFFEFD22E933E8330470F8020C75125C
:100A4A000C4058046009E4CC24815006285009025D
:100A5A000C7F284003020C7CC0E0EB4A7044B9804A
:100A6A0006D0E0FB020C6BEF4E701CBD8008EBFF5A
:100A7A00EAFEE9FD80EBE98DF0A4FEE5F0020B1336
:100A8A00E9CDF9EAFEEBFFEF89F0A4FCE5F0CE89A7
:100A9A00F0A42EFFE435F0CD89F0A42DFEE435F064
:100AAA008067EF4E7005BD80D780C3EF8BF0A4AC92
:100ABA00F0EE8BF0A42CFCE435F0F8EF8AF0A42CCD
:100ACA00E5F038FCE433CB8DF0A42CFCE5F03BF8E0
:100ADA00EE8AF0A42CFCE5F038F8E433CF89F0A4D0
:100AEA002CFCE5F038CF3400CE89F0A42FFFE5F0D6
:100AFA003EFEE433C98DF0A42EFEE5F039CD8AF02E
:100B0A00A42FFFE5F03EFEE43DFD33D0E0FB5007A5
:100B1A000BBB000F020C7FEC2CFCEF33FFEE33FE15
:060B2A00ED33FD020C5743
:100B3000020C7FEC5D046005E859047003020C753B
:100B4000120C40580460F6EC4860F2EC7004FDFEB4
:100B5000FF22C860DB2481C85009C3986002500698
:100B6000020C7C9850CAF582E9294B4A7005AB8289
:100B7000020C6B75F0007C1A7880C3EF9BEE9AED47
:100B800099400DC3EF9BFFEE9AFEED99FDE842F010
:100B9000DC23ACF0D0E0FFD0E0FED0E0FDAB822063
:100BA000E7101BEB60BAEC2CFCEF33FFEE33FEEDED
:100BB00033FD020C57E803F830E705C0F075F0008C
:100BC000EF2FFFEE33FEED33FD40B830E7C280AAD1
:100BD0003F8000004120000042C80000447A00002D
:100BE000461C400047C35000497424004B189680AF
:100BF0004CBEBC205A0E1BCA6753C21C749DC5AEA6
:100C0000FB60065407601C2323120C2EEB54386043
:100C100009120C1A120C29120A2AECF8EDF9EEFA54
:100C2000EFCB22EB120C2980F1543803241C900BDB
:100C3000D0FE93FC0EEE93FD0EEE930ECE93FF22AC
:100C4000E9D2E7C933E833F892D5EDD2E7CD33ECFA
:070C500033FC5002B2D52273
:100C5700EC30E7100FBF000C0EBE00080DBD0004FE
:100C67000BEB6014A2D5EB13FCED92E7FD2274FFAA
:100C7700FCFDFEFF22E480F8A2D574FF13FC7D8003
:030C8700E480EF17
:100C8A00BB010689828A83E0225002E722BBFE0268
:090C9A00E32289828A83E493229B
:100CA300BB010CE58229F582E5833AF583E0225006
:100CB30006E92582F8E622BBFE06E92582F8E22250
:0D0CC300E58229F582E5833AF583E493226A
:100CD000BB010689828A83F0225002F722BBFE0103
:020CE000F322FD
:100CE200E493FC740193FD740293FE740393FF2258
:100CF200FAE6FB0808E6F925F0F618E6CA3AF62203
:100D0200D083D082F8E4937012740193700DA3A380
:100D120093F8740193F5828883E473740293686094
:060D2200EFA3A3A380DF94
:10163A00EFB40A07740D121645740A309811A89966
:10164A00B8130CC2983098FDA899C298B811F63010
:07165A0099FDC299F59922E8
:00000001FF
