:030000000216DD08
:0C16DD00787FE4F6D8FD7581520215A854
:10119700566F6C746167653A200025312E346656A8
:1011A70000000000003DC8B4393E48CE703E96941A
:1011B700463EC8CE703EFAFB7F3F1694463F2FB19E
:1011C7005B3F48C7E33F61E4F73F7AFB7F3F8A090C
:1011D700033F96978D3FA322D13FAFAE143FBC3C50
:1011E7009F3FC8C7E33FD5566D3FE1E1B13FEE6C86
:1011F700F43FFAFB7F4003C361400A0AA640105040
:1012070048401695EA401CDD2F402322D140296A29
:1012170016402FAFB84035F55A403C3C9F404282BC
:10122700414048C986404F0F28405554CA405B9CEF
:101237000F4061E1B1406828F6406E6E984074B483
:1012470039407AFB7F4080A0904083C3614086E7A6
:1012570004408A09D5408D2D7740905048409373BC
:1012670019409696BC4099B98C409CDD2F40A00050
:101277000040A322D140A6467440A9694440AC8CE3
:10128700E740AFAFB840B2D28940B5F62B40B918A6
:10129700FC40BC3C9F40BF5F7040C2824140C5A537
:1012A700E340C8C8B440CBEB8540CF0F2840D231CC
:1012B700F940D5559B40D8786C40DB9B3D40DEBE5E
:1012C700E040E1E1B140E5055340E8282440EB4A1E
:1012D700F540EE6E9840F1916840F4B50B40F7D7B2
:1012E700DC40FAFAAD40FE1E4F4100A090410232A9
:1012F700614103C3CA410555324106E704410878F5
:101307006C410A0A3D410B9BA6410D2D0E410EBEB5
:10131700E0411050484111E1B14113738241150476
:10132700EA411696BC411828244119B98C411B4B38
:101337005E411CDCC6411E6E984120000041219190
:10134700684123233A4124B4A2412646744127D752
:10135700DC41296944412AFB16412C8C7E412E1E13
:101367004F412FAFB8413141204132D2F24134646D
:101377005A4135F5C341378794413918FC413AAA98
:10138700CE413C3C36413DCD9F413F5F704140F0EF
:10139700D8414282AA414414124145A57A414737B0
:1013A7004C4148C8B4414A5A86414BEBEE414D7D0A
:1013B70056414F0F284150A090415232614153C3CB
:1013C700CA415555324156E7044158786C415A0A8B
:1013D7003D415B9BA6415D2D0E415EBEE0416050E5
:1013E700484161E1B141637382416504EA41669610
:1013F700BC416828244169B98C416B4B5E416CDC68
:10140700C6416E6E98417000004171916841732327
:101417003A4174B4A2417646744177D7DC41796981
:1014270044417AFB16417C8C7E417E1E4F417FAF43
:10143700B84180A090418169794182322D4182FA79
:10144700E14183C3CA41848C7E4185556741861E2D
:101457001B4186E6CF4187AFB84188786C41894107
:1014670055418A0A09418AD2BD418B9BA6418C64AA
:101477005A418D2D43418DF5F7418EBEAB418F8784
:101487009441905048419119314191E1E54192AA27
:10149700994193738241943C364195051F4195CDFF
:1014A700D34196968741975F70419828244198F0D9
:1014B700D84199B9C1419A8275419B4B5E419C14B1
:1014C70012419CDCC6419DA5AF419E6E63419F378B
:1014D7004C41A0000041A0C8B441A1919D41A25A2E
:1014E7005141A3233A41A3EBEE41A4B4A241A57D08
:1014F7008B41A6463F41A70F2841A7D7DC41A8A0AB
:101507009041A9697941AA322D41AAFAE141ABC3B9
:10151700CA41AC8C7E41AD556741AE1E1B41AEE65C
:10152700CF41AFAFB841B0786C41B1415541B20A34
:101537000941B2D2BD41B39BA641B4645A41B52D0E
:101547004341B5F5F741B6BEAB41B7879441B850B3
:101557004841B9193141B9E1E541BAAA9941BB738B
:101567008241BC3C3641BD051F41BDCDD341BE962E
:101577008741BF5F7041C0282441C0F0D841C1B93D
:10158700C141C2827541C34B5E41C4141241C4DCE0
:10159700C641C5A5AF41C66E6341C7374C41C800B8
:0115A7000043
:1015A8001215E57BFF7A1179971216601216A88F2B
:1015B8002275F004EFA424A8F582E5F03411F58330
:1015C800120CE28F268E258D248C237FC01216BD27
:0D15D800AF26AE25AD24AC2312168580CFC2
:1015E5007F381216BD1216157F0C1216BD12161570
:1015F5007F061216BD1216157F011216BD1216159D
:0C1605007F801216BD7F017E00021619C6
:1016BD008FA0C2B0121611C2B27F017E00021619A0
:1016CD008FA0D2B0121611C2B27F017E0002161980
:101660008B378A388939AB37AA38A939120C8A6086
:10167000130539E5397002053814F9120C8AFF1286
:0516800016CD80E222FE
:10168500753AFF753B11753CA18F408E3F8D3E8CA1
:101695003D7B007A007927120D847B007A0079273B
:0316A500021660CA
:1016A800D2B3D2B5121615C2B3C2B520B6FDD2B4A4
:0416B800AF90C2B479
:0116BC00220B
:08161100C2B1D2B27F017E00DC
:10161900E4FDFCC3ED9FEC9E5015E4FBFA0BBB0007
:0F162900010ABA04F8BBFBF50DBD00010C80E40B
:01163800228F
:100D2800E54E243AF8E6054E227837300702783A3D
:100D3800E475F001120CF2020C8A2000EB7F2ED22F
:100D4800008018EF540F2490D43440D4FF30040BA3
:100D5800EF24BFB41A0050032461FFE54F60021569
:100D68004F0552E5527002055130070D7837E4758A
:100D7800F001120CF2EF020CD00216397403D207FC
:100D88008003E4C207F54E8B378A388939E4F54F7A
:100D9800F551F552E54F60077F20120D6380F57518
:100DA80050FFC201C200C202C203C205C206C20885
:100DB800120D31FF700D3007057F00120D74AF5210
:100DC800AE5122B4255FC2D5C204120D31FF24D022
:100DD800B40A00501A75F00A784F30D50508B6FFE6
:100DE8000106C6A426F620D5047002D20380D924B1
:100DF800CFB41A00EF5004C2E5D204021061D20148
:100E080080C6D20080C0D20280BCD2D580BAD205BA
:100E180080B47F20120D632002077401B54F004093
:100E2800F1120D28FF120D63020D9CD208D2068024
:100E380095120D28FB120D28FA120D28F94A4B704D
:100E48000679587A117BFF20022EE54F602A7E0032
:100E58008E82758300120CA360060EEE655070F04A
:100E6800C2D5EBC0E0EAC0E0E9C0E0EE1210C1D0A4
:100E7800E0F9D0E0FAD0E0FB120C8AFF60AAEBC0E0
:100E8800E0EAC0E0E9C0E0120D63D0E02401F9D047
:100E9800E03400FAD0E0FBE5500460DCD550D9809E
:100EA80087D20280A21210A460F7E55070010412E4
:100EB8000800A950600DE550600914F55012114B57
:100EC800EF60F3EA30E702F404C3995077EAF425B7
:100ED800500430E701E404F550800D1210A460C1FD
:100EE800EA05502550120800EA784DF630E701E48B
:100EF800255004D55004200501141210C1E4C0E0A7
:100F080012114B784DE6601320E70714F6120D4BCB
:100F1800802204F6D0E014C0E07F00120D4BE550AB
:100F28006007120D421550800B300503120D42D098
:100F3800E0020D9CD0E00480C51210A460A0E5502A
:100F480004120800784DEAF6E55020050260010415
:050F580024041210C189
:100F5D0074FF04C0E012114B120D4BE55020050239
:100F6D006003120D42D0E0B550E87F45120D557863
:100F7D004DE67F2B30E7047F2DF404C0E0120D63A6
:100F8D00D0E075F00A84C0F0120D4CD0E0120D4C7B
:100F9D00020D9C791080027908C206C2088008D221
:100FAD00D5790A8004790AC2D5E550047002F5504E
:100FBD00E4FAFDFEFF120D28FC7B08200113120D33
:100FCD0028FD7B1030000A120D28FE120D28FF7B24
:100FDD0020EC3382D592D55013C3E43000069FFF29
:100FED00E49EFEE42001039DFDE49CFCE4CBF8C2ED
:100FFD0001EC700CCFCECDCCE824F8F870F380174F
:10100D00C3EF33FFEE33FEED33FDEC33FCEB33FB7F
:10101D00994002FB0FD8E9EB300105F8D0E0C44848
:10102D00B201C0E00AEC4D4E4F78207B0070C2EA51
:10103D00B5500040BCC0E01210C3D0F0D0E020018C
:10104D0004C4C0E0C4B201C0F0120D4CD0F0D5F014
:10105D00EB020D9C120D020E39530FA0580E0A4CC7
:10106D000E06420FA44F0FAC440FAC490E1F430F99
:10107D00B2550EE3460F41450EAD471178500E0E99
:10108D002D0E122E0E352B0E16230E332011612A26
:10109D000DCE4800000E2DE550B4FF03755006121D
:1010AD000D28FC120D28FD120D28FE120D28FF78BB
:1010BD004602082F790AA2D5200314300509B9106C
:1010CD00020404B9080104A2D5200602500104202F
:1010DD0002689202B54F005034C0E07F20300319F2
:1010ED007F30A20272067205500F12111AC202C28F
:1010FD0006C205C2087F30800F300503E9C0E0123B
:10110D000D63300503D0E0F9D0E0B54FCC300517B5
:10111D007F30B9100C120D637F583004077F788033
:10112D0003B90803120D633002057F2D020D637F95
:10113D00202008F87F2B2006F322920280CF7F001B
:10114D00B4070050052446F8E6FF22286E756C6C36
:10115D002900D201120D283001F8C201784F30D587
:10116D000108F6020DCE2D50434958120D282403C7
:10117D00B405004001E490117393120D54743A12AA
:0A118D000D54D203754F04020FA0A9
:10080000F920E72824F950037907E4F42402FB18BF
:10081000DBFDE624FB5014E9600DE4F618E604F66F
:0F082000B40A08E4F6D9F57401F60A22C2D5220B
:10082F00ED33EC3392D5FA602AB4FF33EDC2E77B98
:10083F00FF60067A087954E4227A08795D20D5049E
:10084F007A087958224E614E002B494E46002D49A9
:10085F004E4600E47A08F608DAFC7B00740722E8BB
:10086F00C0E0ECC0E0EDC0E0EEC0E0EFC0E0EA7544
:10087F00F010A4CAABF075F04DA42BFBE435F0FCDF
:10088F00EA2410FAEB34C5FBEC34D9FCEDC2E7FFD8
:10089F0075F056A4F42411C5F0F434C58FF0A42AD2
:1008AF00E5F03BE43CF620E714120C00D0E0FFD05B
:1008BF00E0FED0E0FDD0E0FC120B338014F4041204
:1008CF000C00D0E0FFD0E0FED0E0FDD0E0FC120A3B
:1008DF002AD0E0F8E6FAEDD2E7CD33EC332482FBF1
:1008EF00E4C3CF33CFCE33CECD33CD33DBF37B0762
:1008FF0075F00A846004F6081B0AE5F0F6088FF01D
:10090F00740AA4FFACF08EF0740AA42CFEACF05065
:10091F00010C8DF0740AA42CFDE435F0F608DBDE33
:03092F0074072228
:10093200020C75E86480F8E933E83360110460F072
:10094200ED33EC337009E8FCE9FDEAFEEBFF22042B
:1009520060DED3EB9FEA9EE99DE8C2E78CF0C2F726
:1009620095F0400CE8CCF8E9CDF9EACEFAEBCFFBF2
:10097200120C4085D0F05804700320D5B3E80470FF
:10098200075002B2D5020C7F92D5EC0460F7E4CC9A
:10099200C0E0C398F8603B94186008400DD0E0FBBB
:1009A200020C57E4FBFAC9FC8028E830E406E4C9EB
:1009B200FBE4CAFCE830E305E4C9CACBFCE854070F
:1009C2006010F8C3E913F9EA13FAEB13FBEC13FC1A
:1009D200D8F130F52FC3E49CFCEF9BFFEE9AFEEDBD
:1009E20099FDD0E0FBEF4E4D4C701222DB03020C5E
:1009F2007CEC2CFCEF33FFEE33FEED33FDED30E704
:100A0200EB020C57EF2BFFEE3AFEED39FDD0E0FB87
:100A120050130BBB0003020C7FED13FDEE13FEEF30
:080A220013FFEC13FC020C575A
:100A2A00EC4D6011E8497017ED33EC3304600DE4C6
:100A3A00FCFFFEFD22E933E8330470F8020C75125C
:100A4A000C4058046009E4CC24815006285009025D
:100A5A000C7F284003020C7CC0E0EB4A7044B9804A
:100A6A0006D0E0FB020C6BEF4E701CBD8008EBFF5A
:100A7A00EAFEE9FD80EBE98DF0A4FEE5F0020B1336
:100A8A00E9CDF9EAFEEBFFEF89F0A4FCE5F0CE89A7
:100A9A00F0A42EFFE435F0CD89F0A42DFEE435F064
:100AAA008067EF4E7005BD80D780C3EF8BF0A4AC92
:100ABA00F0EE8BF0A42CFCE435F0F8EF8AF0A42CCD
:100ACA00E5F038FCE433CB8DF0A42CFCE5F03BF8E0
:100ADA00EE8AF0A42CFCE5F038F8E433CF89F0A4D0
:100AEA002CFCE5F038CF3400CE89F0A42FFFE5F0D6
:100AFA003EFEE433C98DF0A42EFEE5F039CD8AF02E
:100B0A00A42FFFE5F03EFEE43DFD33D0E0FB5007A5
:100B1A000BBB000F020C7FEC2CFCEF33FFEE33FE15
:060B2A00ED33FD020C5743
:100B3000020C7FEC5D046005E859047003020C753B
:100B4000120C40580460F6EC4860F2EC7004FDFEB4
:100B5000FF22C860DB2481C85009C3986002500698
:100B6000020C7C9850CAF582E9294B4A7005AB8289
:100B7000020C6B75F0007C1A7880C3EF9BEE9AED47
:100B800099400DC3EF9BFFEE9AFEED99FDE842F010
:100B9000DC23ACF0D0E0FFD0E0FED0E0FDAB822063
:100BA000E7101BEB60BAEC2CFCEF33FFEE33FEEDED
:100BB00033FD020C57E803F830E705C0F075F0008C
:100BC000EF2FFFEE33FEED33FD40B830E7C280AAD1
:100BD0003F8000004120000042C80000447A00002D
:100BE000461C400047C35000497424004B189680AF
:100BF0004CBEBC205A0E1BCA6753C21C749DC5AEA6
:100C0000FB60065407601C2323120C2EEB54386043
:100C100009120C1A120C29120A2AECF8EDF9EEFA54
:100C2000EFCB22EB120C2980F1543803241C900BDB
:100C3000D0FE93FC0EEE93FD0EEE930ECE93FF22AC
:100C4000E9D2E7C933E833F892D5EDD2E7CD33ECFA
:070C500033FC5002B2D52273
:100C5700EC30E7100FBF000C0EBE00080DBD0004FE
:100C67000BEB6014A2D5EB13FCED92E7FD2274FFAA
:100C7700FCFDFEFF22E480F8A2D574FF13FC7D8003
:030C8700E480EF17
:100C8A00BB010689828A83E0225002E722BBFE0268
:090C9A00E32289828A83E493229B
:100CA300BB010CE58229F582E5833AF583E0225006
:100CB30006E92582F8E622BBFE06E92582F8E22250
:0D0CC300E58229F582E5833AF583E493226A
:100CD000BB010689828A83F0225002F722BBFE0103
:020CE000F322FD
:100CE200E493FC740193FD740293FE740393FF2258
:100CF200FAE6FB0808E6F925F0F618E6CA3AF62203
:100D0200D083D082F8E4937012740193700DA3A380
:100D120093F8740193F5828883E473740293686094
:060D2200EFA3A3A380DF94
:10163900EFB40A07740D121644740A309811A89968
:10164900B8130CC2983098FDA899C298B811F63011
:0716590099FDC299F59922E9
:00000001FF
